{
  "contractName": "NftMarket",
  "abi": [
    {
      "inputs": [],
      "stateMutability": "nonpayable",
      "type": "constructor"
    },
    {
      "anonymous": false,
      "inputs": [
        {
          "indexed": true,
          "internalType": "address",
          "name": "owner",
          "type": "address"
        },
        {
          "indexed": true,
          "internalType": "address",
          "name": "approved",
          "type": "address"
        },
        {
          "indexed": true,
          "internalType": "uint256",
          "name": "tokenId",
          "type": "uint256"
        }
      ],
      "name": "Approval",
      "type": "event"
    },
    {
      "anonymous": false,
      "inputs": [
        {
          "indexed": true,
          "internalType": "address",
          "name": "owner",
          "type": "address"
        },
        {
          "indexed": true,
          "internalType": "address",
          "name": "operator",
          "type": "address"
        },
        {
          "indexed": false,
          "internalType": "bool",
          "name": "approved",
          "type": "bool"
        }
      ],
      "name": "ApprovalForAll",
      "type": "event"
    },
    {
      "anonymous": false,
      "inputs": [
        {
          "indexed": false,
          "internalType": "uint256",
          "name": "tokenId",
          "type": "uint256"
        },
        {
          "indexed": false,
          "internalType": "uint256",
          "name": "price",
          "type": "uint256"
        },
        {
          "indexed": false,
          "internalType": "address",
          "name": "creator",
          "type": "address"
        },
        {
          "indexed": false,
          "internalType": "bool",
          "name": "isListed",
          "type": "bool"
        }
      ],
      "name": "NftItemCreated",
      "type": "event"
    },
    {
      "anonymous": false,
      "inputs": [
        {
          "indexed": true,
          "internalType": "address",
          "name": "previousOwner",
          "type": "address"
        },
        {
          "indexed": true,
          "internalType": "address",
          "name": "newOwner",
          "type": "address"
        }
      ],
      "name": "OwnershipTransferred",
      "type": "event"
    },
    {
      "anonymous": false,
      "inputs": [
        {
          "indexed": true,
          "internalType": "address",
          "name": "from",
          "type": "address"
        },
        {
          "indexed": true,
          "internalType": "address",
          "name": "to",
          "type": "address"
        },
        {
          "indexed": true,
          "internalType": "uint256",
          "name": "tokenId",
          "type": "uint256"
        }
      ],
      "name": "Transfer",
      "type": "event"
    },
    {
      "inputs": [
        {
          "internalType": "address",
          "name": "to",
          "type": "address"
        },
        {
          "internalType": "uint256",
          "name": "tokenId",
          "type": "uint256"
        }
      ],
      "name": "approve",
      "outputs": [],
      "stateMutability": "nonpayable",
      "type": "function"
    },
    {
      "inputs": [
        {
          "internalType": "address",
          "name": "owner",
          "type": "address"
        }
      ],
      "name": "balanceOf",
      "outputs": [
        {
          "internalType": "uint256",
          "name": "",
          "type": "uint256"
        }
      ],
      "stateMutability": "view",
      "type": "function",
      "constant": true
    },
    {
      "inputs": [
        {
          "internalType": "uint256",
          "name": "tokenId",
          "type": "uint256"
        }
      ],
      "name": "getApproved",
      "outputs": [
        {
          "internalType": "address",
          "name": "",
          "type": "address"
        }
      ],
      "stateMutability": "view",
      "type": "function",
      "constant": true
    },
    {
      "inputs": [
        {
          "internalType": "address",
          "name": "owner",
          "type": "address"
        },
        {
          "internalType": "address",
          "name": "operator",
          "type": "address"
        }
      ],
      "name": "isApprovedForAll",
      "outputs": [
        {
          "internalType": "bool",
          "name": "",
          "type": "bool"
        }
      ],
      "stateMutability": "view",
      "type": "function",
      "constant": true
    },
    {
      "inputs": [],
      "name": "listingPrice",
      "outputs": [
        {
          "internalType": "uint256",
          "name": "",
          "type": "uint256"
        }
      ],
      "stateMutability": "view",
      "type": "function",
      "constant": true
    },
    {
      "inputs": [],
      "name": "name",
      "outputs": [
        {
          "internalType": "string",
          "name": "",
          "type": "string"
        }
      ],
      "stateMutability": "view",
      "type": "function",
      "constant": true
    },
    {
      "inputs": [],
      "name": "owner",
      "outputs": [
        {
          "internalType": "address",
          "name": "",
          "type": "address"
        }
      ],
      "stateMutability": "view",
      "type": "function",
      "constant": true
    },
    {
      "inputs": [
        {
          "internalType": "uint256",
          "name": "tokenId",
          "type": "uint256"
        }
      ],
      "name": "ownerOf",
      "outputs": [
        {
          "internalType": "address",
          "name": "",
          "type": "address"
        }
      ],
      "stateMutability": "view",
      "type": "function",
      "constant": true
    },
    {
      "inputs": [],
      "name": "renounceOwnership",
      "outputs": [],
      "stateMutability": "nonpayable",
      "type": "function"
    },
    {
      "inputs": [
        {
          "internalType": "address",
          "name": "from",
          "type": "address"
        },
        {
          "internalType": "address",
          "name": "to",
          "type": "address"
        },
        {
          "internalType": "uint256",
          "name": "tokenId",
          "type": "uint256"
        }
      ],
      "name": "safeTransferFrom",
      "outputs": [],
      "stateMutability": "nonpayable",
      "type": "function"
    },
    {
      "inputs": [
        {
          "internalType": "address",
          "name": "from",
          "type": "address"
        },
        {
          "internalType": "address",
          "name": "to",
          "type": "address"
        },
        {
          "internalType": "uint256",
          "name": "tokenId",
          "type": "uint256"
        },
        {
          "internalType": "bytes",
          "name": "data",
          "type": "bytes"
        }
      ],
      "name": "safeTransferFrom",
      "outputs": [],
      "stateMutability": "nonpayable",
      "type": "function"
    },
    {
      "inputs": [
        {
          "internalType": "address",
          "name": "operator",
          "type": "address"
        },
        {
          "internalType": "bool",
          "name": "approved",
          "type": "bool"
        }
      ],
      "name": "setApprovalForAll",
      "outputs": [],
      "stateMutability": "nonpayable",
      "type": "function"
    },
    {
      "inputs": [
        {
          "internalType": "bytes4",
          "name": "interfaceId",
          "type": "bytes4"
        }
      ],
      "name": "supportsInterface",
      "outputs": [
        {
          "internalType": "bool",
          "name": "",
          "type": "bool"
        }
      ],
      "stateMutability": "view",
      "type": "function",
      "constant": true
    },
    {
      "inputs": [],
      "name": "symbol",
      "outputs": [
        {
          "internalType": "string",
          "name": "",
          "type": "string"
        }
      ],
      "stateMutability": "view",
      "type": "function",
      "constant": true
    },
    {
      "inputs": [
        {
          "internalType": "uint256",
          "name": "tokenId",
          "type": "uint256"
        }
      ],
      "name": "tokenURI",
      "outputs": [
        {
          "internalType": "string",
          "name": "",
          "type": "string"
        }
      ],
      "stateMutability": "view",
      "type": "function",
      "constant": true
    },
    {
      "inputs": [
        {
          "internalType": "address",
          "name": "from",
          "type": "address"
        },
        {
          "internalType": "address",
          "name": "to",
          "type": "address"
        },
        {
          "internalType": "uint256",
          "name": "tokenId",
          "type": "uint256"
        }
      ],
      "name": "transferFrom",
      "outputs": [],
      "stateMutability": "nonpayable",
      "type": "function"
    },
    {
      "inputs": [
        {
          "internalType": "address",
          "name": "newOwner",
          "type": "address"
        }
      ],
      "name": "transferOwnership",
      "outputs": [],
      "stateMutability": "nonpayable",
      "type": "function"
    },
    {
      "inputs": [
        {
          "internalType": "uint256",
          "name": "newPrice",
          "type": "uint256"
        }
      ],
      "name": "setListingPrice",
      "outputs": [],
      "stateMutability": "nonpayable",
      "type": "function"
    },
    {
      "inputs": [
        {
          "internalType": "uint256",
          "name": "tokenId",
          "type": "uint256"
        }
      ],
      "name": "getNftItem",
      "outputs": [
        {
          "components": [
            {
              "internalType": "uint256",
              "name": "tokenId",
              "type": "uint256"
            },
            {
              "internalType": "uint256",
              "name": "price",
              "type": "uint256"
            },
            {
              "internalType": "address",
              "name": "creator",
              "type": "address"
            },
            {
              "internalType": "bool",
              "name": "isListed",
              "type": "bool"
            }
          ],
          "internalType": "struct NftMarket.NftItem",
          "name": "",
          "type": "tuple"
        }
      ],
      "stateMutability": "view",
      "type": "function",
      "constant": true
    },
    {
      "inputs": [],
      "name": "listedItemsCount",
      "outputs": [
        {
          "internalType": "uint256",
          "name": "",
          "type": "uint256"
        }
      ],
      "stateMutability": "view",
      "type": "function",
      "constant": true
    },
    {
      "inputs": [
        {
          "internalType": "string",
          "name": "tokenURI",
          "type": "string"
        }
      ],
      "name": "tokenURIExists",
      "outputs": [
        {
          "internalType": "bool",
          "name": "",
          "type": "bool"
        }
      ],
      "stateMutability": "view",
      "type": "function",
      "constant": true
    },
    {
      "inputs": [],
      "name": "totalSupply",
      "outputs": [
        {
          "internalType": "uint256",
          "name": "",
          "type": "uint256"
        }
      ],
      "stateMutability": "view",
      "type": "function",
      "constant": true
    },
    {
      "inputs": [
        {
          "internalType": "uint256",
          "name": "index",
          "type": "uint256"
        }
      ],
      "name": "tokenByIndex",
      "outputs": [
        {
          "internalType": "uint256",
          "name": "",
          "type": "uint256"
        }
      ],
      "stateMutability": "view",
      "type": "function",
      "constant": true
    },
    {
      "inputs": [
        {
          "internalType": "address",
          "name": "owner",
          "type": "address"
        },
        {
          "internalType": "uint256",
          "name": "index",
          "type": "uint256"
        }
      ],
      "name": "tokenOfOwnerByIndex",
      "outputs": [
        {
          "internalType": "uint256",
          "name": "",
          "type": "uint256"
        }
      ],
      "stateMutability": "view",
      "type": "function",
      "constant": true
    },
    {
      "inputs": [],
      "name": "getAllNftsOnSale",
      "outputs": [
        {
          "components": [
            {
              "internalType": "uint256",
              "name": "tokenId",
              "type": "uint256"
            },
            {
              "internalType": "uint256",
              "name": "price",
              "type": "uint256"
            },
            {
              "internalType": "address",
              "name": "creator",
              "type": "address"
            },
            {
              "internalType": "bool",
              "name": "isListed",
              "type": "bool"
            }
          ],
          "internalType": "struct NftMarket.NftItem[]",
          "name": "",
          "type": "tuple[]"
        }
      ],
      "stateMutability": "view",
      "type": "function",
      "constant": true
    },
    {
      "inputs": [],
      "name": "getOwnedNfts",
      "outputs": [
        {
          "components": [
            {
              "internalType": "uint256",
              "name": "tokenId",
              "type": "uint256"
            },
            {
              "internalType": "uint256",
              "name": "price",
              "type": "uint256"
            },
            {
              "internalType": "address",
              "name": "creator",
              "type": "address"
            },
            {
              "internalType": "bool",
              "name": "isListed",
              "type": "bool"
            }
          ],
          "internalType": "struct NftMarket.NftItem[]",
          "name": "",
          "type": "tuple[]"
        }
      ],
      "stateMutability": "view",
      "type": "function",
      "constant": true
    },
    {
      "inputs": [
        {
          "internalType": "string",
          "name": "tokenURI",
          "type": "string"
        },
        {
          "internalType": "uint256",
          "name": "price",
          "type": "uint256"
        }
      ],
      "name": "mintToken",
      "outputs": [
        {
          "internalType": "uint256",
          "name": "",
          "type": "uint256"
        }
      ],
      "stateMutability": "payable",
      "type": "function",
      "payable": true
    },
    {
      "inputs": [
        {
          "internalType": "uint256",
          "name": "tokenId",
          "type": "uint256"
        }
      ],
      "name": "buyNft",
      "outputs": [],
      "stateMutability": "payable",
      "type": "function",
      "payable": true
    },
    {
      "inputs": [
        {
          "internalType": "uint256",
          "name": "tokenId",
          "type": "uint256"
        },
        {
          "internalType": "uint256",
          "name": "newPrice",
          "type": "uint256"
        }
      ],
      "name": "placeNftOnSale",
      "outputs": [],
      "stateMutability": "payable",
      "type": "function",
      "payable": true
    }
  ],
  "bytecode": "0x60806040526658d15e176280006008553480156200001c57600080fd5b506040518060400160405280600c81526020017f4372656174757265734e465400000000000000000000000000000000000000008152506040518060400160405280600481526020017f434e4654000000000000000000000000000000000000000000000000000000008152508160009080519060200190620000a1929190620001b1565b508060019080519060200190620000ba929190620001b1565b505050620000dd620000d1620000e360201b60201c565b620000eb60201b60201c565b620002c5565b600033905090565b6000600760009054906101000a900473ffffffffffffffffffffffffffffffffffffffff16905081600760006101000a81548173ffffffffffffffffffffffffffffffffffffffff021916908373ffffffffffffffffffffffffffffffffffffffff1602179055508173ffffffffffffffffffffffffffffffffffffffff168173ffffffffffffffffffffffffffffffffffffffff167f8be0079c531659141344cd1fd0a4f28419497f9722a3daafe3b4186f6b6457e060405160405180910390a35050565b828054620001bf9062000290565b90600052602060002090601f016020900481019282620001e357600085556200022f565b82601f10620001fe57805160ff19168380011785556200022f565b828001600101855582156200022f579182015b828111156200022e57825182559160200191906001019062000211565b5b5090506200023e919062000242565b5090565b5b808211156200025d57600081600090555060010162000243565b5090565b7f4e487b7100000000000000000000000000000000000000000000000000000000600052602260045260246000fd5b60006002820490506001821680620002a957607f821691505b602082108103620002bf57620002be62000261565b5b50919050565b6146f480620002d56000396000f3fe6080604052600436106101c25760003560e01c80636f1a0af5116100f7578063a22cb46511610095578063c87b56dd11610064578063c87b56dd14610651578063ccb4918d1461068e578063e985e9c5146106b9578063f2fde38b146106f6576101c2565b8063a22cb465146105a4578063b88d4fde146105cd578063c046372c146105f6578063c78f19f914610626576101c2565b8063715018a6116100d1578063715018a61461050e5780637c726b69146105255780638da5cb5b1461054e57806395d89b4114610579576101c2565b80636f1a0af51461046957806370a08231146104a657806370cbcb43146104e3576101c2565b8063243adbdd1161016457806342842e0e1161013e57806342842e0e1461038957806343d32ae7146103b25780634f6ccce7146103ef5780636352211e1461042c576101c2565b8063243adbdd146103055780632f745c591461032157806336b536be1461035e576101c2565b8063095ea7b3116101a0578063095ea7b31461026c57806318160ddd1461029557806321f422e5146102c057806323b872dd146102dc576101c2565b806301ffc9a7146101c757806306fdde0314610204578063081812fc1461022f575b600080fd5b3480156101d357600080fd5b506101ee60048036038101906101e99190612eff565b61071f565b6040516101fb9190612f47565b60405180910390f35b34801561021057600080fd5b50610219610801565b6040516102269190612ffb565b60405180910390f35b34801561023b57600080fd5b5061025660048036038101906102519190613053565b610893565b60405161026391906130c1565b60405180910390f35b34801561027857600080fd5b50610293600480360381019061028e9190613108565b6108d9565b005b3480156102a157600080fd5b506102aa6109f0565b6040516102b79190613157565b60405180910390f35b6102da60048036038101906102d59190613172565b6109fd565b005b3480156102e857600080fd5b5061030360048036038101906102fe91906131b2565b610b79565b005b61031f600480360381019061031a9190613053565b610bd9565b005b34801561032d57600080fd5b5061034860048036038101906103439190613108565b610d41565b6040516103559190613157565b60405180910390f35b34801561036a57600080fd5b50610373610de6565b6040516103809190613336565b60405180910390f35b34801561039557600080fd5b506103b060048036038101906103ab91906131b2565b610f80565b005b3480156103be57600080fd5b506103d960048036038101906103d4919061348d565b610fa0565b6040516103e69190612f47565b60405180910390f35b3480156103fb57600080fd5b5061041660048036038101906104119190613053565b610fdc565b6040516104239190613157565b60405180910390f35b34801561043857600080fd5b50610453600480360381019061044e9190613053565b61104d565b60405161046091906130c1565b60405180910390f35b34801561047557600080fd5b50610490600480360381019061048b9190613053565b6110fe565b60405161049d919061352b565b60405180910390f35b3480156104b257600080fd5b506104cd60048036038101906104c89190613546565b6111b0565b6040516104da9190613157565b60405180910390f35b3480156104ef57600080fd5b506104f8611267565b6040516105059190613336565b60405180910390f35b34801561051a57600080fd5b50610523611499565b005b34801561053157600080fd5b5061054c60048036038101906105479190613053565b6114ad565b005b34801561055a57600080fd5b50610563611502565b60405161057091906130c1565b60405180910390f35b34801561058557600080fd5b5061058e61152c565b60405161059b9190612ffb565b60405180910390f35b3480156105b057600080fd5b506105cb60048036038101906105c6919061359f565b6115be565b005b3480156105d957600080fd5b506105f460048036038101906105ef9190613680565b6115d4565b005b610610600480360381019061060b9190613703565b611636565b60405161061d9190613157565b60405180910390f35b34801561063257600080fd5b5061063b611746565b6040516106489190613157565b60405180910390f35b34801561065d57600080fd5b5061067860048036038101906106739190613053565b61174c565b6040516106859190612ffb565b60405180910390f35b34801561069a57600080fd5b506106a361185e565b6040516106b09190613157565b60405180910390f35b3480156106c557600080fd5b506106e060048036038101906106db919061375f565b61186f565b6040516106ed9190612f47565b60405180910390f35b34801561070257600080fd5b5061071d60048036038101906107189190613546565b611903565b005b60007f80ac58cd000000000000000000000000000000000000000000000000000000007bffffffffffffffffffffffffffffffffffffffffffffffffffffffff1916827bffffffffffffffffffffffffffffffffffffffffffffffffffffffff191614806107ea57507f5b5e139f000000000000000000000000000000000000000000000000000000007bffffffffffffffffffffffffffffffffffffffffffffffffffffffff1916827bffffffffffffffffffffffffffffffffffffffffffffffffffffffff1916145b806107fa57506107f982611986565b5b9050919050565b606060008054610810906137ce565b80601f016020809104026020016040519081016040528092919081815260200182805461083c906137ce565b80156108895780601f1061085e57610100808354040283529160200191610889565b820191906000526020600020905b81548152906001019060200180831161086c57829003601f168201915b5050505050905090565b600061089e826119f0565b6004600083815260200190815260200160002060009054906101000a900473ffffffffffffffffffffffffffffffffffffffff169050919050565b60006108e48261104d565b90508073ffffffffffffffffffffffffffffffffffffffff168373ffffffffffffffffffffffffffffffffffffffff1603610954576040517f08c379a000000000000000000000000000000000000000000000000000000000815260040161094b90613871565b60405180910390fd5b8073ffffffffffffffffffffffffffffffffffffffff16610973611a3b565b73ffffffffffffffffffffffffffffffffffffffff1614806109a257506109a18161099c611a3b565b61186f565b5b6109e1576040517f08c379a00000000000000000000000000000000000000000000000000000000081526004016109d890613903565b60405180910390fd5b6109eb8383611a43565b505050565b6000600f80549050905090565b3373ffffffffffffffffffffffffffffffffffffffff16610a1d8361104d565b73ffffffffffffffffffffffffffffffffffffffff1614610a73576040517f08c379a0000000000000000000000000000000000000000000000000000000008152600401610a6a9061396f565b60405180910390fd5b60001515600c600084815260200190815260200160002060020160149054906101000a900460ff16151514610add576040517f08c379a0000000000000000000000000000000000000000000000000000000008152600401610ad4906139db565b60405180910390fd5b6008543414610b21576040517f08c379a0000000000000000000000000000000000000000000000000000000008152600401610b1890613a6d565b60405180910390fd5b6001600c600084815260200190815260200160002060020160146101000a81548160ff02191690831515021790555080600c600084815260200190815260200160002060010181905550610b756009611afc565b5050565b610b8a610b84611a3b565b82611b12565b610bc9576040517f08c379a0000000000000000000000000000000000000000000000000000000008152600401610bc090613aff565b60405180910390fd5b610bd4838383611ba7565b505050565b6000600c60008381526020019081526020016000206001015490506000610bff8361104d565b90508073ffffffffffffffffffffffffffffffffffffffff163373ffffffffffffffffffffffffffffffffffffffff1603610c6f576040517f08c379a0000000000000000000000000000000000000000000000000000000008152600401610c6690613b6b565b60405180910390fd5b813414610cb1576040517f08c379a0000000000000000000000000000000000000000000000000000000008152600401610ca890613bd7565b60405180910390fd5b6000600c600085815260200190815260200160002060020160146101000a81548160ff021916908315150217905550610cea6009611e0d565b610cf5813385611ba7565b8073ffffffffffffffffffffffffffffffffffffffff166108fc349081150290604051600060405180830381858888f19350505050158015610d3b573d6000803e3d6000fd5b50505050565b6000610d4c836111b0565b8210610d8d576040517f08c379a0000000000000000000000000000000000000000000000000000000008152600401610d8490613c43565b60405180910390fd5b600d60008473ffffffffffffffffffffffffffffffffffffffff1673ffffffffffffffffffffffffffffffffffffffff168152602001908152602001600020600083815260200190815260200160002054905092915050565b60606000610df26109f0565b9050600080610e016009611e69565b67ffffffffffffffff811115610e1a57610e19613362565b5b604051908082528060200260200182016040528015610e5357816020015b610e40612db0565b815260200190600190039081610e385790505b50905060005b83811015610f76576000610e6c82610fdc565b90506000600c60008381526020019081526020016000209050600115158160020160149054906101000a900460ff16151503610f61578060405180608001604052908160008201548152602001600182015481526020016002820160009054906101000a900473ffffffffffffffffffffffffffffffffffffffff1673ffffffffffffffffffffffffffffffffffffffff1673ffffffffffffffffffffffffffffffffffffffff1681526020016002820160149054906101000a900460ff161515151581525050848681518110610f4657610f45613c63565b5b6020026020010181905250600185610f5e9190613cc1565b94505b50508080610f6e90613d17565b915050610e59565b5080935050505090565b610f9b838383604051806020016040528060008152506115d4565b505050565b600060011515600b83604051610fb69190613d9b565b908152602001604051809103902060009054906101000a900460ff161515149050919050565b6000610fe66109f0565b8210611027576040517f08c379a000000000000000000000000000000000000000000000000000000000815260040161101e90613c43565b60405180910390fd5b600f828154811061103b5761103a613c63565b5b90600052602060002001549050919050565b6000806002600084815260200190815260200160002060009054906101000a900473ffffffffffffffffffffffffffffffffffffffff169050600073ffffffffffffffffffffffffffffffffffffffff168173ffffffffffffffffffffffffffffffffffffffff16036110f5576040517f08c379a00000000000000000000000000000000000000000000000000000000081526004016110ec90613dfe565b60405180910390fd5b80915050919050565b611106612db0565b600c600083815260200190815260200160002060405180608001604052908160008201548152602001600182015481526020016002820160009054906101000a900473ffffffffffffffffffffffffffffffffffffffff1673ffffffffffffffffffffffffffffffffffffffff1673ffffffffffffffffffffffffffffffffffffffff1681526020016002820160149054906101000a900460ff1615151515815250509050919050565b60008073ffffffffffffffffffffffffffffffffffffffff168273ffffffffffffffffffffffffffffffffffffffff1603611220576040517f08c379a000000000000000000000000000000000000000000000000000000000815260040161121790613e90565b60405180910390fd5b600360008373ffffffffffffffffffffffffffffffffffffffff1673ffffffffffffffffffffffffffffffffffffffff168152602001908152602001600020549050919050565b6060600073ffffffffffffffffffffffffffffffffffffffff163373ffffffffffffffffffffffffffffffffffffffff16146114395760006112a8336111b0565b905060008167ffffffffffffffff8111156112c6576112c5613362565b5b6040519080825280602002602001820160405280156112ff57816020015b6112ec612db0565b8152602001906001900390816112e45790505b50905060005b8281101561142e5760006113193383610d41565b90506000600c600083815260200190815260200160002060405180608001604052908160008201548152602001600182015481526020016002820160009054906101000a900473ffffffffffffffffffffffffffffffffffffffff1673ffffffffffffffffffffffffffffffffffffffff1673ffffffffffffffffffffffffffffffffffffffff1681526020016002820160149054906101000a900460ff161515151581525050905033816040019073ffffffffffffffffffffffffffffffffffffffff16908173ffffffffffffffffffffffffffffffffffffffff16815250508084848151811061140e5761140d613c63565b5b60200260200101819052505050808061142690613d17565b915050611305565b508092505050611496565b60008067ffffffffffffffff81111561145557611454613362565b5b60405190808252806020026020018201604052801561148e57816020015b61147b612db0565b8152602001906001900390816114735790505b509050809150505b90565b6114a1611e77565b6114ab6000611ef5565b565b6114b5611e77565b600081116114f8576040517f08c379a00000000000000000000000000000000000000000000000000000000081526004016114ef90613efc565b60405180910390fd5b8060088190555050565b6000600760009054906101000a900473ffffffffffffffffffffffffffffffffffffffff16905090565b60606001805461153b906137ce565b80601f0160208091040260200160405190810160405280929190818152602001828054611567906137ce565b80156115b45780601f10611589576101008083540402835291602001916115b4565b820191906000526020600020905b81548152906001019060200180831161159757829003601f168201915b5050505050905090565b6115d06115c9611a3b565b8383611fbb565b5050565b6115e56115df611a3b565b83611b12565b611624576040517f08c379a000000000000000000000000000000000000000000000000000000000815260040161161b90613aff565b60405180910390fd5b61163084848484612127565b50505050565b600061164183610fa0565b15611681576040517f08c379a000000000000000000000000000000000000000000000000000000000815260040161167890613f68565b60405180910390fd5b60085434146116c5576040517f08c379a00000000000000000000000000000000000000000000000000000000081526004016116bc90613a6d565b60405180910390fd5b6116cf600a611afc565b6116d96009611afc565b60006116e5600a611e69565b90506116f13382612183565b6116fb81856121a1565b6117058184612215565b6001600b856040516117179190613d9b565b908152602001604051809103902060006101000a81548160ff0219169083151502179055508091505092915050565b60085481565b6060611757826119f0565b6000600660008481526020019081526020016000208054611777906137ce565b80601f01602080910402602001604051908101604052809291908181526020018280546117a3906137ce565b80156117f05780601f106117c5576101008083540402835291602001916117f0565b820191906000526020600020905b8154815290600101906020018083116117d357829003601f168201915b505050505090506000611801612365565b90506000815103611816578192505050611859565b60008251111561184b578082604051602001611833929190613f88565b60405160208183030381529060405292505050611859565b6118548461237c565b925050505b919050565b600061186a6009611e69565b905090565b6000600560008473ffffffffffffffffffffffffffffffffffffffff1673ffffffffffffffffffffffffffffffffffffffff16815260200190815260200160002060008373ffffffffffffffffffffffffffffffffffffffff1673ffffffffffffffffffffffffffffffffffffffff16815260200190815260200160002060009054906101000a900460ff16905092915050565b61190b611e77565b600073ffffffffffffffffffffffffffffffffffffffff168173ffffffffffffffffffffffffffffffffffffffff160361197a576040517f08c379a00000000000000000000000000000000000000000000000000000000081526004016119719061401e565b60405180910390fd5b61198381611ef5565b50565b60007f01ffc9a7000000000000000000000000000000000000000000000000000000007bffffffffffffffffffffffffffffffffffffffffffffffffffffffff1916827bffffffffffffffffffffffffffffffffffffffffffffffffffffffff1916149050919050565b6119f9816123e4565b611a38576040517f08c379a0000000000000000000000000000000000000000000000000000000008152600401611a2f90613dfe565b60405180910390fd5b50565b600033905090565b816004600083815260200190815260200160002060006101000a81548173ffffffffffffffffffffffffffffffffffffffff021916908373ffffffffffffffffffffffffffffffffffffffff160217905550808273ffffffffffffffffffffffffffffffffffffffff16611ab68361104d565b73ffffffffffffffffffffffffffffffffffffffff167f8c5be1e5ebec7d5bd14f71427d1e84f3dd0314c0f7b2291e5b200ac8c7c3b92560405160405180910390a45050565b6001816000016000828254019250508190555050565b600080611b1e8361104d565b90508073ffffffffffffffffffffffffffffffffffffffff168473ffffffffffffffffffffffffffffffffffffffff161480611b605750611b5f818561186f565b5b80611b9e57508373ffffffffffffffffffffffffffffffffffffffff16611b8684610893565b73ffffffffffffffffffffffffffffffffffffffff16145b91505092915050565b8273ffffffffffffffffffffffffffffffffffffffff16611bc78261104d565b73ffffffffffffffffffffffffffffffffffffffff1614611c1d576040517f08c379a0000000000000000000000000000000000000000000000000000000008152600401611c14906140b0565b60405180910390fd5b600073ffffffffffffffffffffffffffffffffffffffff168273ffffffffffffffffffffffffffffffffffffffff1603611c8c576040517f08c379a0000000000000000000000000000000000000000000000000000000008152600401611c8390614142565b60405180910390fd5b611c97838383612450565b611ca2600082611a43565b6001600360008573ffffffffffffffffffffffffffffffffffffffff1673ffffffffffffffffffffffffffffffffffffffff1681526020019081526020016000206000828254611cf29190614162565b925050819055506001600360008473ffffffffffffffffffffffffffffffffffffffff1673ffffffffffffffffffffffffffffffffffffffff1681526020019081526020016000206000828254611d499190613cc1565b92505081905550816002600083815260200190815260200160002060006101000a81548173ffffffffffffffffffffffffffffffffffffffff021916908373ffffffffffffffffffffffffffffffffffffffff160217905550808273ffffffffffffffffffffffffffffffffffffffff168473ffffffffffffffffffffffffffffffffffffffff167fddf252ad1be2c89b69c2b068fc378daa952ba7f163c4a11628f55a4df523b3ef60405160405180910390a4611e08838383612562565b505050565b60008160000154905060008111611e59576040517f08c379a0000000000000000000000000000000000000000000000000000000008152600401611e50906141e2565b60405180910390fd5b6001810382600001819055505050565b600081600001549050919050565b611e7f611a3b565b73ffffffffffffffffffffffffffffffffffffffff16611e9d611502565b73ffffffffffffffffffffffffffffffffffffffff1614611ef3576040517f08c379a0000000000000000000000000000000000000000000000000000000008152600401611eea9061424e565b60405180910390fd5b565b6000600760009054906101000a900473ffffffffffffffffffffffffffffffffffffffff16905081600760006101000a81548173ffffffffffffffffffffffffffffffffffffffff021916908373ffffffffffffffffffffffffffffffffffffffff1602179055508173ffffffffffffffffffffffffffffffffffffffff168173ffffffffffffffffffffffffffffffffffffffff167f8be0079c531659141344cd1fd0a4f28419497f9722a3daafe3b4186f6b6457e060405160405180910390a35050565b8173ffffffffffffffffffffffffffffffffffffffff168373ffffffffffffffffffffffffffffffffffffffff1603612029576040517f08c379a0000000000000000000000000000000000000000000000000000000008152600401612020906142ba565b60405180910390fd5b80600560008573ffffffffffffffffffffffffffffffffffffffff1673ffffffffffffffffffffffffffffffffffffffff16815260200190815260200160002060008473ffffffffffffffffffffffffffffffffffffffff1673ffffffffffffffffffffffffffffffffffffffff16815260200190815260200160002060006101000a81548160ff0219169083151502179055508173ffffffffffffffffffffffffffffffffffffffff168373ffffffffffffffffffffffffffffffffffffffff167f17307eab39ab6107e8899845ad3d59bd9653f200f220920489ca2b5937696c318360405161211a9190612f47565b60405180910390a3505050565b612132848484611ba7565b61213e84848484612567565b61217d576040517f08c379a00000000000000000000000000000000000000000000000000000000081526004016121749061434c565b60405180910390fd5b50505050565b61219d8282604051806020016040528060008152506126ee565b5050565b6121aa826123e4565b6121e9576040517f08c379a00000000000000000000000000000000000000000000000000000000081526004016121e0906143de565b60405180910390fd5b80600660008481526020019081526020016000209080519060200190612210929190612df0565b505050565b60008111612258576040517f08c379a000000000000000000000000000000000000000000000000000000000815260040161224f90613efc565b60405180910390fd5b60405180608001604052808381526020018281526020013373ffffffffffffffffffffffffffffffffffffffff16815260200160011515815250600c6000848152602001908152602001600020600082015181600001556020820151816001015560408201518160020160006101000a81548173ffffffffffffffffffffffffffffffffffffffff021916908373ffffffffffffffffffffffffffffffffffffffff16021790555060608201518160020160146101000a81548160ff0219169083151502179055509050507f470031062672bc0246e132c723a729c4676710ec663a29e86c88678032daddea828233600160405161235994939291906143fe565b60405180910390a15050565b606060405180602001604052806000815250905090565b6060612387826119f0565b6000612391612365565b905060008151116123b157604051806020016040528060008152506123dc565b806123bb84612749565b6040516020016123cc929190613f88565b6040516020818303038152906040525b915050919050565b60008073ffffffffffffffffffffffffffffffffffffffff166002600084815260200190815260200160002060009054906101000a900473ffffffffffffffffffffffffffffffffffffffff1673ffffffffffffffffffffffffffffffffffffffff1614159050919050565b61245b8383836128a9565b600073ffffffffffffffffffffffffffffffffffffffff168373ffffffffffffffffffffffffffffffffffffffff160361249d57612498816128ae565b6124dc565b8173ffffffffffffffffffffffffffffffffffffffff168373ffffffffffffffffffffffffffffffffffffffff16146124db576124da83826128f7565b5b5b600073ffffffffffffffffffffffffffffffffffffffff168273ffffffffffffffffffffffffffffffffffffffff160361251e5761251981612a64565b61255d565b8273ffffffffffffffffffffffffffffffffffffffff168273ffffffffffffffffffffffffffffffffffffffff161461255c5761255b8282612b35565b5b5b505050565b505050565b60006125888473ffffffffffffffffffffffffffffffffffffffff16612bb4565b156126e1578373ffffffffffffffffffffffffffffffffffffffff1663150b7a026125b1611a3b565b8786866040518563ffffffff1660e01b81526004016125d39493929190614498565b6020604051808303816000875af192505050801561260f57506040513d601f19601f8201168201806040525081019061260c91906144f9565b60015b612691573d806000811461263f576040519150601f19603f3d011682016040523d82523d6000602084013e612644565b606091505b506000815103612689576040517f08c379a00000000000000000000000000000000000000000000000000000000081526004016126809061434c565b60405180910390fd5b805181602001fd5b63150b7a0260e01b7bffffffffffffffffffffffffffffffffffffffffffffffffffffffff1916817bffffffffffffffffffffffffffffffffffffffffffffffffffffffff1916149150506126e6565b600190505b949350505050565b6126f88383612bd7565b6127056000848484612567565b612744576040517f08c379a000000000000000000000000000000000000000000000000000000000815260040161273b9061434c565b60405180910390fd5b505050565b606060008203612790576040518060400160405280600181526020017f300000000000000000000000000000000000000000000000000000000000000081525090506128a4565b600082905060005b600082146127c25780806127ab90613d17565b915050600a826127bb9190614555565b9150612798565b60008167ffffffffffffffff8111156127de576127dd613362565b5b6040519080825280601f01601f1916602001820160405280156128105781602001600182028036833780820191505090505b5090505b6000851461289d576001826128299190614162565b9150600a856128389190614586565b60306128449190613cc1565b60f81b81838151811061285a57612859613c63565b5b60200101907effffffffffffffffffffffffffffffffffffffffffffffffffffffffffffff1916908160001a905350600a856128969190614555565b9450612814565b8093505050505b919050565b505050565b600f805490506010600083815260200190815260200160002081905550600f81908060018154018082558091505060019003906000526020600020016000909190919091505550565b60006001612904846111b0565b61290e9190614162565b90506000600e60008481526020019081526020016000205490508181146129f3576000600d60008673ffffffffffffffffffffffffffffffffffffffff1673ffffffffffffffffffffffffffffffffffffffff168152602001908152602001600020600084815260200190815260200160002054905080600d60008773ffffffffffffffffffffffffffffffffffffffff1673ffffffffffffffffffffffffffffffffffffffff16815260200190815260200160002060008481526020019081526020016000208190555081600e600083815260200190815260200160002081905550505b600e600084815260200190815260200160002060009055600d60008573ffffffffffffffffffffffffffffffffffffffff1673ffffffffffffffffffffffffffffffffffffffff16815260200190815260200160002060008381526020019081526020016000206000905550505050565b60006001600f80549050612a789190614162565b90506000601060008481526020019081526020016000205490506000600f8381548110612aa857612aa7613c63565b5b9060005260206000200154905080600f8381548110612aca57612ac9613c63565b5b90600052602060002001819055508160106000838152602001908152602001600020819055506010600085815260200190815260200160002060009055600f805480612b1957612b186145b7565b5b6001900381819060005260206000200160009055905550505050565b6000612b40836111b0565b905081600d60008573ffffffffffffffffffffffffffffffffffffffff1673ffffffffffffffffffffffffffffffffffffffff16815260200190815260200160002060008381526020019081526020016000208190555080600e600084815260200190815260200160002081905550505050565b6000808273ffffffffffffffffffffffffffffffffffffffff163b119050919050565b600073ffffffffffffffffffffffffffffffffffffffff168273ffffffffffffffffffffffffffffffffffffffff1603612c46576040517f08c379a0000000000000000000000000000000000000000000000000000000008152600401612c3d90614632565b60405180910390fd5b612c4f816123e4565b15612c8f576040517f08c379a0000000000000000000000000000000000000000000000000000000008152600401612c869061469e565b60405180910390fd5b612c9b60008383612450565b6001600360008473ffffffffffffffffffffffffffffffffffffffff1673ffffffffffffffffffffffffffffffffffffffff1681526020019081526020016000206000828254612ceb9190613cc1565b92505081905550816002600083815260200190815260200160002060006101000a81548173ffffffffffffffffffffffffffffffffffffffff021916908373ffffffffffffffffffffffffffffffffffffffff160217905550808273ffffffffffffffffffffffffffffffffffffffff16600073ffffffffffffffffffffffffffffffffffffffff167fddf252ad1be2c89b69c2b068fc378daa952ba7f163c4a11628f55a4df523b3ef60405160405180910390a4612dac60008383612562565b5050565b60405180608001604052806000815260200160008152602001600073ffffffffffffffffffffffffffffffffffffffff1681526020016000151581525090565b828054612dfc906137ce565b90600052602060002090601f016020900481019282612e1e5760008555612e65565b82601f10612e3757805160ff1916838001178555612e65565b82800160010185558215612e65579182015b82811115612e64578251825591602001919060010190612e49565b5b509050612e729190612e76565b5090565b5b80821115612e8f576000816000905550600101612e77565b5090565b6000604051905090565b600080fd5b600080fd5b60007fffffffff0000000000000000000000000000000000000000000000000000000082169050919050565b612edc81612ea7565b8114612ee757600080fd5b50565b600081359050612ef981612ed3565b92915050565b600060208284031215612f1557612f14612e9d565b5b6000612f2384828501612eea565b91505092915050565b60008115159050919050565b612f4181612f2c565b82525050565b6000602082019050612f5c6000830184612f38565b92915050565b600081519050919050565b600082825260208201905092915050565b60005b83811015612f9c578082015181840152602081019050612f81565b83811115612fab576000848401525b50505050565b6000601f19601f8301169050919050565b6000612fcd82612f62565b612fd78185612f6d565b9350612fe7818560208601612f7e565b612ff081612fb1565b840191505092915050565b600060208201905081810360008301526130158184612fc2565b905092915050565b6000819050919050565b6130308161301d565b811461303b57600080fd5b50565b60008135905061304d81613027565b92915050565b60006020828403121561306957613068612e9d565b5b60006130778482850161303e565b91505092915050565b600073ffffffffffffffffffffffffffffffffffffffff82169050919050565b60006130ab82613080565b9050919050565b6130bb816130a0565b82525050565b60006020820190506130d660008301846130b2565b92915050565b6130e5816130a0565b81146130f057600080fd5b50565b600081359050613102816130dc565b92915050565b6000806040838503121561311f5761311e612e9d565b5b600061312d858286016130f3565b925050602061313e8582860161303e565b9150509250929050565b6131518161301d565b82525050565b600060208201905061316c6000830184613148565b92915050565b6000806040838503121561318957613188612e9d565b5b60006131978582860161303e565b92505060206131a88582860161303e565b9150509250929050565b6000806000606084860312156131cb576131ca612e9d565b5b60006131d9868287016130f3565b93505060206131ea868287016130f3565b92505060406131fb8682870161303e565b9150509250925092565b600081519050919050565b600082825260208201905092915050565b6000819050602082019050919050565b61323a8161301d565b82525050565b613249816130a0565b82525050565b61325881612f2c565b82525050565b6080820160008201516132746000850182613231565b5060208201516132876020850182613231565b50604082015161329a6040850182613240565b5060608201516132ad606085018261324f565b50505050565b60006132bf838361325e565b60808301905092915050565b6000602082019050919050565b60006132e382613205565b6132ed8185613210565b93506132f883613221565b8060005b8381101561332957815161331088826132b3565b975061331b836132cb565b9250506001810190506132fc565b5085935050505092915050565b6000602082019050818103600083015261335081846132d8565b905092915050565b600080fd5b600080fd5b7f4e487b7100000000000000000000000000000000000000000000000000000000600052604160045260246000fd5b61339a82612fb1565b810181811067ffffffffffffffff821117156133b9576133b8613362565b5b80604052505050565b60006133cc612e93565b90506133d88282613391565b919050565b600067ffffffffffffffff8211156133f8576133f7613362565b5b61340182612fb1565b9050602081019050919050565b82818337600083830152505050565b600061343061342b846133dd565b6133c2565b90508281526020810184848401111561344c5761344b61335d565b5b61345784828561340e565b509392505050565b600082601f83011261347457613473613358565b5b813561348484826020860161341d565b91505092915050565b6000602082840312156134a3576134a2612e9d565b5b600082013567ffffffffffffffff8111156134c1576134c0612ea2565b5b6134cd8482850161345f565b91505092915050565b6080820160008201516134ec6000850182613231565b5060208201516134ff6020850182613231565b5060408201516135126040850182613240565b506060820151613525606085018261324f565b50505050565b600060808201905061354060008301846134d6565b92915050565b60006020828403121561355c5761355b612e9d565b5b600061356a848285016130f3565b91505092915050565b61357c81612f2c565b811461358757600080fd5b50565b60008135905061359981613573565b92915050565b600080604083850312156135b6576135b5612e9d565b5b60006135c4858286016130f3565b92505060206135d58582860161358a565b9150509250929050565b600067ffffffffffffffff8211156135fa576135f9613362565b5b61360382612fb1565b9050602081019050919050565b600061362361361e846135df565b6133c2565b90508281526020810184848401111561363f5761363e61335d565b5b61364a84828561340e565b509392505050565b600082601f83011261366757613666613358565b5b8135613677848260208601613610565b91505092915050565b6000806000806080858703121561369a57613699612e9d565b5b60006136a8878288016130f3565b94505060206136b9878288016130f3565b93505060406136ca8782880161303e565b925050606085013567ffffffffffffffff8111156136eb576136ea612ea2565b5b6136f787828801613652565b91505092959194509250565b6000806040838503121561371a57613719612e9d565b5b600083013567ffffffffffffffff81111561373857613737612ea2565b5b6137448582860161345f565b92505060206137558582860161303e565b9150509250929050565b6000806040838503121561377657613775612e9d565b5b6000613784858286016130f3565b9250506020613795858286016130f3565b9150509250929050565b7f4e487b7100000000000000000000000000000000000000000000000000000000600052602260045260246000fd5b600060028204905060018216806137e657607f821691505b6020821081036137f9576137f861379f565b5b50919050565b7f4552433732313a20617070726f76616c20746f2063757272656e74206f776e6560008201527f7200000000000000000000000000000000000000000000000000000000000000602082015250565b600061385b602183612f6d565b9150613866826137ff565b604082019050919050565b6000602082019050818103600083015261388a8161384e565b9050919050565b7f4552433732313a20617070726f76652063616c6c6572206973206e6f7420746f60008201527f6b656e206f776e6572206e6f7220617070726f76656420666f7220616c6c0000602082015250565b60006138ed603e83612f6d565b91506138f882613891565b604082019050919050565b6000602082019050818103600083015261391c816138e0565b9050919050565b7f596f7520617265206e6f74206f776e6572206f662074686973206e6674000000600082015250565b6000613959601d83612f6d565b915061396482613923565b602082019050919050565b600060208201905081810360008301526139888161394c565b9050919050565b7f4974656d20697320616c7265616479206f6e2073616c65000000000000000000600082015250565b60006139c5601783612f6d565b91506139d08261398f565b602082019050919050565b600060208201905081810360008301526139f4816139b8565b9050919050565b7f5072696365206d75737420626520657175616c20746f206c697374696e67207060008201527f7269636500000000000000000000000000000000000000000000000000000000602082015250565b6000613a57602483612f6d565b9150613a62826139fb565b604082019050919050565b60006020820190508181036000830152613a8681613a4a565b9050919050565b7f4552433732313a2063616c6c6572206973206e6f7420746f6b656e206f776e6560008201527f72206e6f7220617070726f766564000000000000000000000000000000000000602082015250565b6000613ae9602e83612f6d565b9150613af482613a8d565b604082019050919050565b60006020820190508181036000830152613b1881613adc565b9050919050565b7f596f7520616c7265616479206f776e2074686973204e46540000000000000000600082015250565b6000613b55601883612f6d565b9150613b6082613b1f565b602082019050919050565b60006020820190508181036000830152613b8481613b48565b9050919050565b7f506c65617365207375626d6974207468652061736b696e672070726963650000600082015250565b6000613bc1601e83612f6d565b9150613bcc82613b8b565b602082019050919050565b60006020820190508181036000830152613bf081613bb4565b9050919050565b7f496e646578206f7574206f6620626f756e647300000000000000000000000000600082015250565b6000613c2d601383612f6d565b9150613c3882613bf7565b602082019050919050565b60006020820190508181036000830152613c5c81613c20565b9050919050565b7f4e487b7100000000000000000000000000000000000000000000000000000000600052603260045260246000fd5b7f4e487b7100000000000000000000000000000000000000000000000000000000600052601160045260246000fd5b6000613ccc8261301d565b9150613cd78361301d565b9250827fffffffffffffffffffffffffffffffffffffffffffffffffffffffffffffffff03821115613d0c57613d0b613c92565b5b828201905092915050565b6000613d228261301d565b91507fffffffffffffffffffffffffffffffffffffffffffffffffffffffffffffffff8203613d5457613d53613c92565b5b600182019050919050565b600081905092915050565b6000613d7582612f62565b613d7f8185613d5f565b9350613d8f818560208601612f7e565b80840191505092915050565b6000613da78284613d6a565b915081905092915050565b7f4552433732313a20696e76616c696420746f6b656e2049440000000000000000600082015250565b6000613de8601883612f6d565b9150613df382613db2565b602082019050919050565b60006020820190508181036000830152613e1781613ddb565b9050919050565b7f4552433732313a2061646472657373207a65726f206973206e6f74206120766160008201527f6c6964206f776e65720000000000000000000000000000000000000000000000602082015250565b6000613e7a602983612f6d565b9150613e8582613e1e565b604082019050919050565b60006020820190508181036000830152613ea981613e6d565b9050919050565b7f5072696365206d757374206265206174206c6561737420312077656900000000600082015250565b6000613ee6601c83612f6d565b9150613ef182613eb0565b602082019050919050565b60006020820190508181036000830152613f1581613ed9565b9050919050565b7f546f6b656e2055524920616c7265616479206578697374730000000000000000600082015250565b6000613f52601883612f6d565b9150613f5d82613f1c565b602082019050919050565b60006020820190508181036000830152613f8181613f45565b9050919050565b6000613f948285613d6a565b9150613fa08284613d6a565b91508190509392505050565b7f4f776e61626c653a206e6577206f776e657220697320746865207a65726f206160008201527f6464726573730000000000000000000000000000000000000000000000000000602082015250565b6000614008602683612f6d565b915061401382613fac565b604082019050919050565b6000602082019050818103600083015261403781613ffb565b9050919050565b7f4552433732313a207472616e736665722066726f6d20696e636f72726563742060008201527f6f776e6572000000000000000000000000000000000000000000000000000000602082015250565b600061409a602583612f6d565b91506140a58261403e565b604082019050919050565b600060208201905081810360008301526140c98161408d565b9050919050565b7f4552433732313a207472616e7366657220746f20746865207a65726f2061646460008201527f7265737300000000000000000000000000000000000000000000000000000000602082015250565b600061412c602483612f6d565b9150614137826140d0565b604082019050919050565b6000602082019050818103600083015261415b8161411f565b9050919050565b600061416d8261301d565b91506141788361301d565b92508282101561418b5761418a613c92565b5b828203905092915050565b7f436f756e7465723a2064656372656d656e74206f766572666c6f770000000000600082015250565b60006141cc601b83612f6d565b91506141d782614196565b602082019050919050565b600060208201905081810360008301526141fb816141bf565b9050919050565b7f4f776e61626c653a2063616c6c6572206973206e6f7420746865206f776e6572600082015250565b6000614238602083612f6d565b915061424382614202565b602082019050919050565b600060208201905081810360008301526142678161422b565b9050919050565b7f4552433732313a20617070726f766520746f2063616c6c657200000000000000600082015250565b60006142a4601983612f6d565b91506142af8261426e565b602082019050919050565b600060208201905081810360008301526142d381614297565b9050919050565b7f4552433732313a207472616e7366657220746f206e6f6e20455243373231526560008201527f63656976657220696d706c656d656e7465720000000000000000000000000000602082015250565b6000614336603283612f6d565b9150614341826142da565b604082019050919050565b6000602082019050818103600083015261436581614329565b9050919050565b7f45524337323155524953746f726167653a2055524920736574206f66206e6f6e60008201527f6578697374656e7420746f6b656e000000000000000000000000000000000000602082015250565b60006143c8602e83612f6d565b91506143d38261436c565b604082019050919050565b600060208201905081810360008301526143f7816143bb565b9050919050565b60006080820190506144136000830187613148565b6144206020830186613148565b61442d60408301856130b2565b61443a6060830184612f38565b95945050505050565b600081519050919050565b600082825260208201905092915050565b600061446a82614443565b614474818561444e565b9350614484818560208601612f7e565b61448d81612fb1565b840191505092915050565b60006080820190506144ad60008301876130b2565b6144ba60208301866130b2565b6144c76040830185613148565b81810360608301526144d9818461445f565b905095945050505050565b6000815190506144f381612ed3565b92915050565b60006020828403121561450f5761450e612e9d565b5b600061451d848285016144e4565b91505092915050565b7f4e487b7100000000000000000000000000000000000000000000000000000000600052601260045260246000fd5b60006145608261301d565b915061456b8361301d565b92508261457b5761457a614526565b5b828204905092915050565b60006145918261301d565b915061459c8361301d565b9250826145ac576145ab614526565b5b828206905092915050565b7f4e487b7100000000000000000000000000000000000000000000000000000000600052603160045260246000fd5b7f4552433732313a206d696e7420746f20746865207a65726f2061646472657373600082015250565b600061461c602083612f6d565b9150614627826145e6565b602082019050919050565b6000602082019050818103600083015261464b8161460f565b9050919050565b7f4552433732313a20746f6b656e20616c7265616479206d696e74656400000000600082015250565b6000614688601c83612f6d565b915061469382614652565b602082019050919050565b600060208201905081810360008301526146b78161467b565b905091905056fea264697066735822122046f97ade06f920a34a68d221c1e0b3c7f30733259c2e914a32b7b63dae2463e764736f6c634300080d0033",
  "immutableReferences": {},
  "source": "// SPDX-License-Identifier: MIT\npragma solidity >=0.4.22 <0.9.0;\n\nimport \"@openzeppelin/contracts/token/ERC721/extensions/ERC721URIStorage.sol\";\nimport \"@openzeppelin/contracts/utils/Counters.sol\";\nimport \"@openzeppelin/contracts/access/Ownable.sol\";\n\ncontract NftMarket is ERC721URIStorage, Ownable {\n    using Counters for Counters.Counter;\n\n    struct NftItem {\n        uint256 tokenId;\n        uint256 price;\n        address creator;\n        bool isListed;\n    }\n\n    uint256 public listingPrice = 0.025 ether;\n\n    Counters.Counter private _listedItems;\n    Counters.Counter private _tokenIds;\n\n    mapping(string => bool) private _usedTokenURIs;\n    mapping(uint256 => NftItem) private _idToNftItem;\n\n    mapping(address => mapping(uint256 => uint256)) private _ownedTokens;\n    mapping(uint256 => uint256) private _idToOwnedIndex;\n\n    uint256[] private _allNfts;\n    mapping(uint256 => uint256) private _idToNftIndex;\n\n    event NftItemCreated(\n        uint256 tokenId,\n        uint256 price,\n        address creator,\n        bool isListed\n    );\n\n    constructor() ERC721(\"CreaturesNFT\", \"CNFT\") {}\n\n    function setListingPrice(uint256 newPrice) external onlyOwner {\n        require(newPrice > 0, \"Price must be at least 1 wei\");\n        listingPrice = newPrice;\n    }\n\n    function getNftItem(uint256 tokenId) public view returns (NftItem memory) {\n        return _idToNftItem[tokenId];\n    }\n\n    function listedItemsCount() public view returns (uint256) {\n        return _listedItems.current();\n    }\n\n    function tokenURIExists(string memory tokenURI) public view returns (bool) {\n        return _usedTokenURIs[tokenURI] == true;\n    }\n\n    function totalSupply() public view returns (uint256) {\n        return _allNfts.length;\n    }\n\n    function tokenByIndex(uint256 index) public view returns (uint256) {\n        require(index < totalSupply(), \"Index out of bounds\");\n        return _allNfts[index];\n    }\n\n    function tokenOfOwnerByIndex(address owner, uint256 index)\n        public\n        view\n        returns (uint256)\n    {\n        require(index < ERC721.balanceOf(owner), \"Index out of bounds\");\n        return _ownedTokens[owner][index];\n    }\n\n    function getAllNftsOnSale() public view returns (NftItem[] memory) {\n        uint256 allItemsCounts = totalSupply();\n        uint256 currentIndex = 0;\n        NftItem[] memory items = new NftItem[](_listedItems.current());\n\n        for (uint256 i = 0; i < allItemsCounts; i++) {\n            uint256 tokenId = tokenByIndex(i);\n            NftItem storage item = _idToNftItem[tokenId];\n\n            if (item.isListed == true) {\n                items[currentIndex] = item;\n                currentIndex += 1;\n            }\n        }\n\n        return items;\n    }\n\n    function getOwnedNfts() public view returns (NftItem[] memory) {\n        if(msg.sender!=address(0)){\n        uint256 ownedItemsCount = ERC721.balanceOf(msg.sender);\n        NftItem[] memory items = new NftItem[](ownedItemsCount);\n\n        for (uint256 i = 0; i < ownedItemsCount; i++) {\n            uint256 tokenId = tokenOfOwnerByIndex(msg.sender, i);\n            NftItem memory item = _idToNftItem[tokenId];\n            item.creator=address(msg.sender);\n            items[i] = item;\n        }\n\n        return items;\n        }else{\n             NftItem[] memory items = new NftItem[](0);\n             return items;\n        }\n    }\n\n    function mintToken(string memory tokenURI, uint256 price)\n        public\n        payable\n        returns (uint256)\n    {\n        require(!tokenURIExists(tokenURI), \"Token URI already exists\");\n        require(\n            msg.value == listingPrice,\n            \"Price must be equal to listing price\"\n        );\n\n        _tokenIds.increment();\n        _listedItems.increment();\n\n        uint256 newTokenId = _tokenIds.current();\n\n        _safeMint(msg.sender, newTokenId);\n        _setTokenURI(newTokenId, tokenURI);\n        _createNftItem(newTokenId, price);\n        _usedTokenURIs[tokenURI] = true;\n\n        return newTokenId;\n    }\n\n    function buyNft(uint256 tokenId) public payable {\n        uint256 price = _idToNftItem[tokenId].price;\n        address owner = ERC721.ownerOf(tokenId);\n\n        require(msg.sender != owner, \"You already own this NFT\");\n        require(msg.value == price, \"Please submit the asking price\");\n\n        _idToNftItem[tokenId].isListed = false;\n        _listedItems.decrement();\n\n        _transfer(owner, msg.sender, tokenId);\n        payable(owner).transfer(msg.value);\n    }\n\n    function placeNftOnSale(uint256 tokenId, uint256 newPrice) public payable {\n        require(\n            ERC721.ownerOf(tokenId) == msg.sender,\n            \"You are not owner of this nft\"\n        );\n        require(\n            _idToNftItem[tokenId].isListed == false,\n            \"Item is already on sale\"\n        );\n        require(\n            msg.value == listingPrice,\n            \"Price must be equal to listing price\"\n        );\n\n        _idToNftItem[tokenId].isListed = true;\n        _idToNftItem[tokenId].price = newPrice;\n        _listedItems.increment();\n    }\n\n    function _createNftItem(uint256 tokenId, uint256 price) private {\n        require(price > 0, \"Price must be at least 1 wei\");\n\n        _idToNftItem[tokenId] = NftItem(tokenId, price, msg.sender, true);\n\n        emit NftItemCreated(tokenId, price, msg.sender, true);\n    }\n\n    function _beforeTokenTransfer(\n        address from,\n        address to,\n        uint256 tokenId\n    ) internal virtual override {\n        super._beforeTokenTransfer(from, to, tokenId);\n\n        if (from == address(0)) {\n            _addTokenToAllTokensEnumeration(tokenId);\n        } else if (from != to) {\n            _removeTokenFromOwnerEnumeration(from, tokenId);\n        }\n\n        if (to == address(0)) {\n            _removeTokenFromAllTokensEnumeration(tokenId);\n        } else if (to != from) {\n            _addTokenToOwnerEnumeration(to, tokenId);\n        }\n    }\n\n    function _addTokenToAllTokensEnumeration(uint256 tokenId) private {\n        _idToNftIndex[tokenId] = _allNfts.length;\n        _allNfts.push(tokenId);\n    }\n\n    function _addTokenToOwnerEnumeration(address to, uint256 tokenId) private {\n        uint256 length = ERC721.balanceOf(to);\n        _ownedTokens[to][length] = tokenId;\n        _idToOwnedIndex[tokenId] = length;\n    }\n\n    function _removeTokenFromOwnerEnumeration(address from, uint256 tokenId)\n        private\n    {\n        uint256 lastTokenIndex = ERC721.balanceOf(from) - 1;\n        uint256 tokenIndex = _idToOwnedIndex[tokenId];\n\n        if (tokenIndex != lastTokenIndex) {\n            uint256 lastTokenId = _ownedTokens[from][lastTokenIndex];\n\n            _ownedTokens[from][tokenIndex] = lastTokenId;\n            _idToOwnedIndex[lastTokenId] = tokenIndex;\n        }\n\n        delete _idToOwnedIndex[tokenId];\n        delete _ownedTokens[from][lastTokenIndex];\n    }\n\n    function _removeTokenFromAllTokensEnumeration(uint256 tokenId) private {\n        uint256 lastTokenIndex = _allNfts.length - 1;\n        uint256 tokenIndex = _idToNftIndex[tokenId];\n        uint256 lastTokenId = _allNfts[lastTokenIndex];\n\n        _allNfts[tokenIndex] = lastTokenId;\n        _idToNftIndex[lastTokenId] = tokenIndex;\n\n        delete _idToNftIndex[tokenId];\n        _allNfts.pop();\n    }\n}\n",
  "sourcePath": "/Users/pankajchaudhary/Documents/workspace/personal/nft-marketplace/nft-marketplace/contracts/NftMarket.sol",
  "compiler": {
    "name": "solc",
    "version": "0.8.13+commit.abaa5c0e.Emscripten.clang"
  },
  "schemaVersion": "3.4.9",
  "updatedAt": "2022-11-02T06:36:16.496Z",
  "networkType": "ethereum",
  "devdoc": {
    "kind": "dev",
    "methods": {
      "approve(address,uint256)": {
        "details": "See {IERC721-approve}."
      },
      "balanceOf(address)": {
        "details": "See {IERC721-balanceOf}."
      },
      "getApproved(uint256)": {
        "details": "See {IERC721-getApproved}."
      },
      "isApprovedForAll(address,address)": {
        "details": "See {IERC721-isApprovedForAll}."
      },
      "name()": {
        "details": "See {IERC721Metadata-name}."
      },
      "owner()": {
        "details": "Returns the address of the current owner."
      },
      "ownerOf(uint256)": {
        "details": "See {IERC721-ownerOf}."
      },
      "renounceOwnership()": {
        "details": "Leaves the contract without owner. It will not be possible to call `onlyOwner` functions anymore. Can only be called by the current owner. NOTE: Renouncing ownership will leave the contract without an owner, thereby removing any functionality that is only available to the owner."
      },
      "safeTransferFrom(address,address,uint256)": {
        "details": "See {IERC721-safeTransferFrom}."
      },
      "safeTransferFrom(address,address,uint256,bytes)": {
        "details": "See {IERC721-safeTransferFrom}."
      },
      "setApprovalForAll(address,bool)": {
        "details": "See {IERC721-setApprovalForAll}."
      },
      "supportsInterface(bytes4)": {
        "details": "See {IERC165-supportsInterface}."
      },
      "symbol()": {
        "details": "See {IERC721Metadata-symbol}."
      },
      "tokenURI(uint256)": {
        "details": "See {IERC721Metadata-tokenURI}."
      },
      "transferFrom(address,address,uint256)": {
        "details": "See {IERC721-transferFrom}."
      },
      "transferOwnership(address)": {
        "details": "Transfers ownership of the contract to a new account (`newOwner`). Can only be called by the current owner."
      }
    },
    "version": 1
  },
  "userdoc": {
    "kind": "user",
    "methods": {},
    "version": 1
  }
}